:100000000C947A000C948C000C948C000C948C0052
:100010000C948C000C948C000C948C000C948C0030
:100020000C948C000C948C000C948C000C948C0020
:100030000C948C000C948C000C948C000C948C0010
:100040000C948C000C948C000C948C000C948C0000
:100050000C948C000C948C000C948C000C948C00F0
:100060000C948C000C948C000C948C000C948C00E0
:100070000C948C000C948C000C948C000C948C00D0
:100080000C948C000C948C000C948C000C948C00C0
:100090000C948C000C948C000C948C000C948C00B0
:1000A0000C948C000C948C000C948C000C948C00A0
:1000B0000C948C000C948C000C948C000C948C0090
:1000C0000C948C000C948C000C948C000C948C0080
:1000D0000C948C000C94AB000C948C000C948C0051
:1000E0000C948C000C948C000C948C000C948C0060
:1000F0000C948C0011241FBECFEFCDBFDFE7DEBF15
:1001000020E4A0E0B0E401C01D92A130B207E1F705
:100110000E94D9000C94E8000C940000E0E2F4E0A6
:100120008081816080838081826080830895E0E6A1
:10013000F8E085818068858383E896E080879187F1
:100140008681806C868308959091640895FFFCCF2A
:100150008093620808951F920F920FB60F92112498
:100160000BB60F922F933F934F935F936F937F93B1
:100170008F939F93AF93BF93EF93FF93809160080A
:1001800080930040809100400E94A400FF91EF9175
:10019000BF91AF919F918F917F916F915F914F919F
:1001A0003F912F910F900BBE0F900FBE0F901F909D
:1001B00018950E948E000E94970078942FE78AE19C
:1001C00096E0215080409040E1F700C00000F6CF5B
:0401D000F894FFCFD1
:00000001FF
